:1000000064EF0BF06896000C046ED8CF05F0E0CFDB
:1000100006F00001E9CF0CF0EACF07F0E1CF08F0DD
:10002000E2CF09F0D9CF0AF0DACF0BF0F3CF12F01C
:10003000F4CF13F0FACF14F000C00EF001C00FF0AF
:1000400002C010F003C011F0A0AA2AEF00F0A1BA7C
:10005000A4EF06F00EC000F00FC001F010C002F0D7
:1000600011C003F00CC0E9FF07C0EAFF078E08C00B
:10007000E1FF09C0E2FF0AC0D9FF0BC0DAFF12C0DE
:10008000F3FF13C0F4FF14C0FAFF045006C0E0FFF2
:1000900005C0D8FF1000F2CF0DF0F29EF76AB00F46
:1000A000F66E000EF7220900F5500DBEF28E12001A
:1000B000280C0106F76AC40FF66E000EF72209003D
:1000C000F55012000003FFFFFFFFFFFFFFFFFFFFE0
:1000D000FFFFFFFF07AE03D0F2CF0DF0F29EF76AED
:1000E000F60FF66E000EF7220900F55007AE02D0AB
:1000F0000DBEF28E1200400008000000000000005B
:1001000000000000000000000000000000000000EF
:10011000000000000000F76A260FF66E010EF722BD
:100120000900F55012000600FF0901A1011901297B
:10013000081580257F7508950A810219012908751F
:1001400008950A9102C0F76A560FF66E010EF72263
:100150000900F55012000000F76A680FF66E010EF4
:10016000F7220900F55012002000F76A7A0FF66EA8
:10017000010EF7220900F5501200090229000101C1
:1001800000C0320904000002030000000921000140
:1001900000012220000705810308000A070501036A
:1001A00008000A00F76AB40FF66E010EF722090084
:1001B000F55012000100F76AC60FF66E010EF72225
:1001C0000900F55012001200F76AD80FF66E010E02
:1001D000F7220900F5501200120110010000004042
:1001E00061042000000101020001F76AFA0FF66EB7
:1001F000010EF7220900F550120004030904080358
:100200004300430053001A034300430053002000FF
:100210004800490044002000440065006D006F0064
:10022000F2CF0DF0F29EF76A3A0FF66E020EF72249
:100230000900F5500DBEF28E120052005900600008
:1002400067006D92699468A402D06894FCD7B0EFFF
:1002500006F0400E0401016F040E036F100E026FD2
:10026000880E006F046B040E076F500E066F0001BE
:10027000000C70A002D0EDDF7090689AB9EF06F024
:100280006A6A6892BFEF06F0F091EFBFF081EF9FCE
:10029000EF51100803E2000E016E21D0F0A110D042
:1002A000036AEF51F2CFF1F0F29E04DFF1BFF28E5C
:1002B000FF0802E1000E01D0010E016E10D00FD038
:1002C000036AEF51F2CFF1F0F29EF4DEF1BFF28E4D
:1002D000FF0802E1000E01D0010E016E00D0000CFB
:1002E000036AEE51700FE96E0F0E0320EA6EEF6A9B
:1002F000EEC0EFF0C9DF015218E0EE51080DF350E7
:10030000F06BE96E040EF025EA6EEF6AEE51080D0F
:10031000F350F06BEF6F040EEF27000EF023EFC0E9
:10032000E9FF040EF025EA6EEF6A000C010EED6F96
:10033000ED510F0805E3EDC0EEF0D2DFED2BF8D75D
:10034000000CE36BE3530AE1036AE351240FE96E07
:10035000000E0320EA6EEF6AE32BF4D7186A010E51
:10036000196E176A000C6A6A686A9F0E6B6E3D0E02
:10037000696E6E6ADBDFE5DF160E706E68A602D06E
:1003800041DEFCD76D9865DF030E1F6EC5EF06F0EA
:10039000698468986D82CBEF06F0689CD1EF06F017
:1003A000E8C020F0000CFF0E206E000CE66B23521C
:1003B0003EE0E6513F083BE31A50FC0F2BE2040FEE
:1003C00021EF02F0036A2250F2CFE8F0F29ECDDE78
:1003D000E8BFF28EE76F1ED0036A2250F2CFE8F03A
:1003E000F29E99DEE8BFF28EE76F14D0036A2250C6
:1003F000F2CFE8F0F29EF9DEE8BFF28EE76F0AD0A6
:10040000036A2250F2CFE8F0F29EDEDEE8BFF28E01
:10041000E76F00D0222A2306E651E62B036A500F2D
:10042000E96E040E0320EA6EE7C0EFFFC0D7235247
:1004300004E1E651400801E0176AE6C0E8F0B0DFE9
:10044000000CE824F76AF7365D0FF66E040EF7220B
:100450000A00F550FA6E0800F550F96EC403D8038F
:10046000EC030004226A1A6A04011351010A000114
:1004700009E0030A0CE0010A0DE0220A22E0030A67
:100480003FE065D0120E236E030E1A6E62D0290E65
:10049000236E5FD0020E1A6E036A040112511B0F05
:1004A000E96E000E0320EA6EEFCF22F0036A2250BD
:1004B000F2CFE6F0F29E000198DEE6BFF28E236EE8
:1004C00048D0D89004011235036AF2CFE6F0F29ECC
:1004D000000171DE0900F5CF03F0E6BFF28E226E57
:1004E000223C01D00BD0036A2250F2CFE6F0F29EFC
:1004F0003CDEE6BFF28E236E2CD002D054DF35D026
:10050000D89004011435036AF2CFE6F0F29E0001A0
:100510001ADE0900F5CF03F0E6BFF28E226E223C10
:1005200001D013D0010E1A6ED89004011435036A5D
:10053000F2CFE6F0F29E00010FDE0900F5CF03F0E6
:10054000E6BFF28E236E05D002D02DDF0ED02BDF5A
:100550000CD00401175305E12350165D02E216C4C6
:1005600023F0010E176E000121DF000CE55304E1BA
:10057000040E1F6EDBDECFD0050E1F6E040EE86F7B
:10058000900EE76F010EE66FE6510F08D8A0C3D0BA
:10059000E6C0EEF0A5DEE96B036AE651F2CFEDF0BE
:1005A000F29E88DDEDBFF28EFF0857E0040EE96F82
:1005B000D890E635036AF2CFEDF0F29E8BDD0900AC
:1005C000F5CF03F0EDBFF28EEA6F03C0EBF0E6511A
:1005D000080DF350EE6BED6F010EED25016E000E70
:1005E000EE21036E01C0E9FF040E0324EA6EEAC0A7
:1005F000EFFFE651080DF350EE6BED6F020EED25A7
:10060000016E000EEE21036E01C0E9FF040E03240B
:10061000EA6EE8C0ECFFED52E7C0EFFFD890E63598
:10062000036AF2CFEDF0F29E55DD0900F5CF03F03D
:10063000EDBFF28EE7270350E823880EEC6FEBB195
:10064000EC81EBB3EC83E651080DF350EE6BE96EF1
:10065000040EEE25EA6EECC0EFFF036AE651F2CF1E
:10066000EDF0F29E27DDEDBFF28EFF0839E0E98361
:10067000E651080DF350EE6BED6F040EED27000E02
:10068000EE23020EED25016E000EEE21036E01C079
:10069000E9FF040E0324EA6EE8C0ECFFED52E7C068
:1006A000EFFFD890E635036AF2CFEDF0F29E12DD4F
:1006B0000900F5CF03F0EDBFF28EE7270350E823E2
:1006C000E651080DF350EE6BED6F040EED27000EB2
:1006D000EE23EDC0E9FF040EEE25EA6E400EEF6E4C
:1006E000E951060802E10E0EE96F036AE651F2CF06
:1006F000EDF0F29EDFDCEDBFF28E0108D8A4E989AF
:10070000036AE651700FE96E0F0E0320EA6EE9C02E
:10071000EFFFE62B39D7D8EF03F004011151000A9F
:1007200000010DE0010A14E0020A1EE0060A27E0BB
:10073000030A2CE00E0A2CE0010A30E03DD019C07B
:1007400050F40401516B020E0001E86F29DE36D02F
:100750000401122D06D0010E19160001E86B20DEEF
:1007600002D0000120DE2AD00401122D05D019820A
:100770000001E86B15DE02D0000115DE1FD0020E6D
:10078000176E12C421F0E86B0BDE18D06BDE16D0AA
:1007900018C050F4010EE86F03DE10D004011251AE
:1007A000010808E312C418F012C4E5F00001DED617
:1007B000E86BF6DD000102D0F6DD00D0F0EF04F0CA
:1007C00018C0E5F004011151000A000107E00A0A0F
:1007D0000DE0010A2DE00D0A3DE03ED00401506B12
:1007E000516B020E0001E86FDBDD38D0E5531EE0EF
:1007F000010EE55D036AF2CFE6F0F29ED3DCE6BFC0
:10080000F28E016E0401145DD8A002D000010ED05A
:10081000036A1451240FE96E000E0320EA6EEFCF35
:1008200050F4010E0001E86FBBDD01D0BCDD16D035
:10083000E5530EE0036A04011451240FE96E000E23
:100840000320EA6E12C4EFFF0001E86BA9DD01D0BE
:10085000AADD04D007DE02D0A6DD00D0F0EF04F060
:10086000E691E5BFE681E59FE6A111D0E551080DCF
:10087000F350E86BE76F040EE727000EE823E7C0AC
:10088000E9FF040EE825EA6E880EEF6E09D0E55107
:10089000080DF350E86BE96E040EE825EA6EEF6A86
:1008A000B2EF04F0E691E5BFE681E59FE6A111D045
:1008B000E551080DF350E86BE76F040EE727000ED3
:1008C000E823E7C0E9FF040EE825EA6E840EEF6E28
:1008D0000AD0E551080DF350E86BE96E040EE825E7
:1008E000EA6E840EEF6EB8EF04F0E691E5BFE681A4
:1008F000E59FE6A111D0E551080DF350E96BE86FD3
:10090000040EE827000EE923E8C0E9FF040EE925FC
:10091000EA6EEFCFE7F00AD0E551080DF350E96B2E
:10092000E96E040EE925EA6EEFCFE7F0E7AF02D0FB
:10093000E7B502D0000E01D0010E016EC2EF04F047
:1009400014C4EFF0A1DC015229E004011151010AA5
:10095000000105E0020A09E0030A0DE01DD014C4FD
:10096000E5F07ED7E86B1CDD19D014C4E5F09AD70A
:10097000E86B16DD13D00401506B516B14C4E5F025
:100980000001B3D7015204E0010E0401506F0001D1
:10099000020EE86F05DD02D006DD00D0F0EF04F0B6
:1009A0000401115100D00001FEDC00D0F0EF04F092
:1009B000176A040110517F0B000A000107E0010AC9
:1009C00007E0030A07E0230A07E008D0A6D608D00C
:1009D000F7D606D0B5D704D0E3D702D0E4DC00D0F8
:1009E00019EF06F0E551080DF350EB6BE96E040EBC
:1009F000EB25EA6EEFCFE7F0E651020806E1E7AD3E
:100A000002D0E66B02D0010EE66FE651030813E157
:100A1000840EE76FE551080DF350EB6BEA6F040E9F
:100A2000EA27000EEB23EAC0E9FF040EEB25EA6E8D
:100A3000840EEF6E07D0E62D03D0C80EE76F02D00C
:100A4000880EE76FD890E535036AF2CFEAF0F29EA0
:100A50006AEC00F00900F5CF03F0EABFF28EE86F10
:100A600003C0E9F0E551080DF350EB6BEA6F010E9E
:100A7000EA25016E000EEB21036E01C0E9FF040EB2
:100A80000324EA6EE8C0EFFFE9B1E781E9B3E78349
:100A9000E551080DF350EB6BE96E040EEB25EA6EA1
:100AA000E7C0EFFF000C036AEA51700FE96E0F0E0A
:100AB0000320EA6EEF5212E0EA51080DF350EC6B9E
:100AC000EB6F040EEB27000EEC23EBC0E9FF040EE6
:100AD000EC25EA6EEFCFEBF0EBAF02D0000E01D0C9
:100AE000010E016E000CE5C0EAF0DDDF015262E0AC
:100AF000E551080DF350EB6BEA6F040EEA27000E88
:100B0000EB23010EEA25016E000EEB21036E01C0FE
:100B1000E9FF040E0324EA6EE6C0EFFFE851020885
:100B200017E1E551080DF350EB6BEA6F040EEA276D
:100B3000000EEB23EAC0E9FF040EEB25EA6EEFCFCF
:100B4000E9F0E9AD02D0E86B02D0010EE86F13D0F6
:100B5000E851040810E1E551080DF350EB6BE96E24
:100B6000040EEB25EA6EEFCFE9F0E9AD03D0010EFC
:100B7000E86F01D0E86BE82D03D0C80EE96F02D012
:100B8000880EE96FE7B1E981E7B3E983E551080D24
:100B9000F350EB6BEA6F040EEA27000EEB23EAC07A
:100BA000E9FF040EEB25EA6EE9C0EFFF010E016ECE
:100BB00003D000D0000E016E000CE55300E1000CE4
:100BC000E6C06EFFE65303E0040E1F6E02D0020E75
:100BD0001F6EF0EF05F0186A176A21C0E6F0F0D733
:100BE000FDEF05F0E55309E1172C03D0D6EC01F039
:100BF00004D01750020801E1EED7000C1E30E36F5D
:100C0000E333E3331F0EE3171E5242E104010051A8
:100C10003C0B0001E46F430E040100170001E45196
:100C200034081EE104010451800B01E0046B000153
:100C3000BFD66D98203C05D0E56B030EE66FD2DE83
:100C40000ED0E56B020EE66FCDDE2050FE0807E009
:100C5000E56BE76B20C0E6F0040EE86F44DF17D0C9
:100C6000E451040814E1E56BA8DFE56B020EE66FC2
:100C7000B9DE2050FE080AE0203C01D007D0E56B29
:100C8000E76B20C0E6F0010EE86F2DDF00D05AD0F0
:100C90001E50040814E1430E04010417FF0E206ED9
:100CA0000001E56B9FDF203C01D008D0E56BE76BCE
:100CB00020C0E6F0020EE86F16DF00D043D01EB46D
:100CC0001BD0E351080DF350E66B016E040EE625D0
:100CD000036EE351080DF350E86BE96E040EE8254E
:100CE000EA6EEF50430B03C0EAFF01C0E9FFEF6E6D
:100CF000E3C0E5F062DF26D0E351080DF350E66B68
:100D0000E56F040EE527000EE623E5C001F0040EB2
:100D1000E625036EE351080DF350E86BE76F040E10
:100D2000E727000EE823E7C0E9FF040EE825EA6E96
:100D3000EF50430B03C0EAFFE5C0E9FFEF6EE3C0ED
:100D4000E5F050DFDBEF06F0A19A1F5201E139D048
:100D5000685237E068A404D069A402D021EF01F002
:100D60006DA201D02ED068AA04D069AA02D039EFB2
:100D700001F068A204D069A202D040EF01F068A09F
:100D800004D069A002D0B3EF01F068A804D069A82C
:100D900002D0C8EF01F068AC04D069AC02D0CDEF4E
:100DA00001F0E26B68A608D069A606D06CCF1EF0F1
:100DB00002EC00F023D701D004D0E251E22B03086B
:100DC000F1E22AEF00F01850016E000C866B939E42
:100DD0008A8E00009386869181B68681938C869355
:100DE00081BC86839388869581B88685938A869709
:100DF00081BA8687939E8A9E86C001F0000C9394E8
:100E00008A840000E3DF01C085F0E0DF01C084F0E8
:100E10008539006EF00E001600508411016E37EF18
:100E200007F085B102D08A9601D08A86939685B361
:100E300002D08A9C01D08A8C939C85B502D08A9876
:100E400001D08A88939885B702D08A9A01D08A8A7D
:100E5000939A0000939E8A8E070E006E002EFED796
:100E600000D0939E8A9E000C93928A92C8D701C0AC
:100E700084F001BEFBD7825303E093928A8202D0B2
:100E800093928A92000093948A940000939E8A9E83
:100E90008339846F0F0E841784C085F0C2DF8351BD
:100EA0000F0B846F856FBDDF000C7E5312E07F5304
:100EB00010E07F51010803E2400E806F01D0806B8B
:100EC000010E7E5D802780518009816F826B836F68
:100ED000CBDF000CEA6ABF0EE96EEF500EE00F0E9A
:100EE000016E006A002EFED7012EFBD78F0E006E1A
:100EF000002EFED70000EF2EF2D7000C7D5338E015
:100F00007D510C0A07E0060A11E0020A18E0010A06
:100F10001EE025D0826B010E836FA6DF826B020E6E
:100F2000836FA2DF020EBF6FD5DF22D0010E7E6F6E
:100F3000020E7F6FBADF020EBF6FCCDF19D0826B5B
:100F4000100E836F91DF020EBF6FC4DF11D0826B72
:100F5000140E836F89DF020EBF6FBCDF09D0010E54
:100F6000826F7DC083F080DF020EBF6FB3DF00D0E1
:100F7000000C0900F5520CE0F6CF7AF0F7CF7BF0C9
:100F8000F5CF7DF0BBDF7AC0F6FF7BC0F7FFF1D76E
:100F9000000C036A8B51700FE96E0F0E0320EA6E8E
:100FA000EF520DE08B51080DF3508D6B8C6FE96E95
:100FB000040E8D25EA6EEFCF8CF08CAF02D0000EC0
:100FC00001D0010E016E000C9051080DF3509B6B87
:100FD0009A6F020E9A25016E000E9B21036E01C0CE
:100FE000E9FF040E0324EA6EECCF03F0ED52EFCFDD
:100FF00095F003C096F09051080DF3509B6B9A6FDB
:10100000010E9A25016E000E9B21036E01C0E9FFBF
:10101000040E0324EA6EEF50036A986F03C099F040
:101020009051080DF3509B6BE96E040E9B25EA6E00
:10103000EFCF97F097B1998197B399839951945DC8
:1010400008E303E19351985D04E299C094F098C0DD
:1010500093F092C0EAFF91C0E9FF96C0E2FF95C00D
:10106000E1FF94C002F093C001F0015202E0022AB5
:1010700002D0025206E0E6CFEEFF012EFCD7022E90
:10108000FAD793C001F094C002F052EF08F08BC081
:1010900090F08DC092F08CC091F08FC094F08EC013
:1010A00093F092D702C08FF001C08EF0166AF2BEA4
:1010B000168EF29E8BC0E5F0020EE66F93DC16BE34
:1010C000F28E8EC001F08FC002F09BEF08F0826BB1
:1010D000816BD8907A35036AF2CF8BF0F29E6AEC7E
:1010E00000F00900F5CF03F08BBFF28E876F03C0CD
:1010F00088F088517E5D09E303E17D51875D05E25B
:1011000088C08AF087C089F004D07EC08AF07DC094
:1011100089F0846B836B7AC08BF03BDF01521DE05A
:101120007AC08BF07CC08DF07BC08CF08AC08FF0D1
:1011300089C08EF0ACD702C086F001C085F0855121
:101140007B2786517C2385517D5F86517E5B85514F
:101150008127865182230DD006D0832BD8B4842BCF
:10116000010EBF6FB7DE7F51835DD5E18051845D95
:10117000D2E18751855D0CE18851865D09E17F519F
:10118000835D03E18051845D03E07D517E11B1E117
:1011900081C001F082C002F01AEF09F00900F6CF19
:1011A0007BF0F7CF7CF0F5CF7DF0A8DE7BC0F6FFBB
:1011B0007CC0F7FF7A2FF2D72EEF09F0EF520FE045
:1011C000EACF7BF0E9CF7AF0EFCF7DF097DE7BC0FE
:1011D000EAFF7AC0E9FFE92AD8B4EA2AEFD732EF6A
:1011E00009F0F1DD01523EE047B00AD0010E7E6FFA
:1011F0007F6F5BDE8C0EF66E120EF76EBADE4780E6
:10120000010E8B6FC6DE01522DE0010E7E6F7F6FE7
:101210004CDE9A0EF66E120EF76EABDE010E7A6F92
:101220007C6B480E7B6F7E6B0A0E7D6F806B640E4D
:101230007F6F4DD7010E7E6F7F6F37DEA60EF66E85
:10124000120EF76E96DE010E7E6F7F6F2EDEB80EE9
:10125000F66E120EF76E070E7A6FA0D7EA6A480E86
:10126000E96EACD747A00CD0AEDD015209E1010E0A
:101270007E6F7F6F1ADEC20EF66E120EF76E79DE8B
:10128000E20E576E110E586E0DEF0CF0456E756D37
:101290006572652121203A4400006B6268697421FF
:1012A00021203A440000202020202020202020203F
:1012B00020202020202020005265636976692025A7
:1012C0007300446573656E756D6572652121203A02
:1012D0004400DC6BDD6B010EDE6FDA6AD96AE16B0C
:1012E000D40EE06FEA6AD80EE96EE1C0E2FFE0C01A
:1012F000E1FFDEC0DFF0D890E550EE02F350DC23D2
:10130000F450DD23DF2FF7D7DCC0DEFFDDC0DCF0DB
:10131000DD6BD8B0DD2BE02BD8B4E12BDE2BDE511A
:101320000508E0E1000C166AF2BE168EF29ED2C0ED
:10133000EAF053EC05F016BEF28E015246E0D251AF
:10134000080DF350DB6BDA6F040EDA27000EDB2397
:10135000020EDA25016E000EDB21036E01C0E9FFEB
:10136000040E0324EA6EECCF03F0ED52EFCFD8F079
:1013700003C0D9F0D9C0EAFFD8C0E9FFD4C0E2FF6A
:10138000D3C0E1FFD6C002F0D5C001F0015202E0A7
:10139000022A02D0025206E0E6CFEEFF012EFCD771
:1013A000022EFAD7166AF2BE168EF29ED2C0E5F071
:1013B000D6C0E7F0D5C0E6F0D7C0E8F073EC05F092
:1013C00016BEF28E015003D000D0000E016E000C4C
:1013D000C66BC56BD890BF35036AF2CFD0F0F29ED2
:1013E0006AEC00F00900F5CF03F0D0BFF28ECA6FAF
:1013F00003C0CBF0C651C35DD8A06BD003E1C2518E
:10140000C55D67E2D36BD26BD16BC4C0D0F0D3C0E3
:10141000D7F0D2C0D6F0D1C0D5F0C4C0D4F0DB6BC9
:10142000DA6B030ED96FE80ED86F53DF03C0CFF02D
:1014300002C0CEF001C0CDF000C0CCF0C551C25DFD
:10144000D06FC651C359D16FCB51D15D09E303E1D0
:10145000D051CA5D05E2CBC0C9F0CAC0C8F006D001
:10146000C551C25DC86FC651C359C96FC551C025AA
:10147000D06FC651C121D16FBFC0D2F0D46FD0C0E0
:10148000D3F0C9C0D6F0C8C0D5F0020ED76F4BDF7D
:10149000C79101B0C781C7B10DD0030E006E002EF9
:1014A000FED700D0FF0ECC27D8A0CD27D8A0CE27BE
:1014B000D8A0CF27C7B108D0CC53D8E1CD53D6E1BF
:1014C000CE53D4E1CF53D2E1CA51C527CB51C62365
:1014D00091D7C251C55D44E1C351C65D41E1D36BB3
:1014E000D26BD16BC4C0D0F0D3C0D7F0D2C0D6F08D
:1014F000D1C0D5F0C4C0D4F0DB6BDA6B030ED96F6A
:10150000E80ED86FE6DE03C0CFF002C0CEF001C017
:10151000CDF000C0CCF0BFC0D2F0D46BD36BD66B93
:10152000D56B020ED76FFFDEC79101B0C781C7B17F
:101530000DD0030E006E002EFED700D0FF0ECC277C
:10154000D8A0CD27D8A0CE27D8A0CF27C7B108D004
:10155000CC53E1E1CD53DFE1CE53DDE1CF53DBE10D
:10156000000EC7B1010E016E000C2DDC01520BE024
:10157000010EBF6FC16B3E0EC06FC36B040EC26F16
:10158000640EC46F25DF6A0E5E6E150E5F6E0DEF82
:101590000CF094948B74920E656F150E666F0DEFC0
:1015A0000CF0948E82AE0BD0010EBF6FC16B420E59
:1015B000C06FC36B050EC26F640EC46F09DF500E9F
:1015C000BF6F88DCA20E6C6F150E6D6F0DEF0CF007
:1015D00045737065726F2E2E2E203100496E69633F
:1015E00069616C697A61646F000093928A92939446
:1015F0008A94939E8A9E0F0EBF6F6CDC6E6B6E5149
:10160000020808E3030E856F0CDC050EBF6F62DC79
:101610006E2BF5D7020E856F04DC6E6B6E510308DE
:101620000FE3036A6E51F2CF6FF0F29E4BEC00F0C5
:101630006FBFF28E6F6F826B836F16DC6E2BEED7EF
:101640000F0EBF6F47DC8CEF0BF06D6A696A080EF6
:101650006F6E94503009946E1F6A166AF2BE168E31
:10166000F29EA1EC01F016BEF28E38EF0BF0EDD732
:101670005EEF0BF0166AF2BE168EF29EA1EC01F040
:1016800016BEF28E6D6A140E6F6E696A6D86010E5B
:101690001F6E4EEF0BF06DB601D0ECD71F2C0BD0A8
:1016A0006DBA09D0686A696AA08AC00EF212110E7A
:1016B000696E020E1F6E5FEF0BF0D9D7ECD71F508B
:1016C0000208FCE19BEF0BF0F86AD09E078EEA6AF5
:1016D000E96A1F6A236A3C6A3D6A4790C150C00BA1
:1016E0000F09C16E070EB46E1B6A040E1C6E0C0E41
:1016F0001D6E480E3E6E4F0E3F6E4C0E406E410EFC
:10170000416E420E426E4F0E436E540E446E4F0EAB
:10171000456E4E0E466E69D7C150C00B0F09C16EA3
:10172000010E7E6F7F6F55EC07F0D00EF66E150E32
:10173000F76E1FDCC2D7010E7E6F7F6F55EC07F08E
:10174000DC0EF66E150EF76E14DC526A546A010E4A
:10175000536E566A556AE20E576E110E586E596AEC
:101760005B6A640E5A6E5D6A030E5C6E6A0E5E6E94
:10177000150E5F6E606B626B320E616F646B010EF3
:10178000636F920E656F150E666F676B696B020E65
:10179000686F6B6B6A6BA20E6C6F150E6D6F256AAE
:1017A000800ED56E3C0ED76EB00ED66EF294800EC3
:1017B000D56E3C0ED76EB00ED66EF294D89025340E
:1017C000006E10EC01F0026E010E002410EC01F02E
:1017D000036E03C0EAFF02C0E9FFEFCF02F0E92A7F
:1017E000EFCF00F0ECCF01F0EC2AEFCF03F002E1F5
:1017F000EC2AED52EC50015C11E10050035C0EE16B
:10180000ED52ED52EE6AEE6A02BE08D0EC52ECCF19
:10181000FAFFED52EFCFE8FFF96E0001252A040E22
:10182000255CCCE1256AD650D7CF03F0F2B4C1D7FE
:0A183000FAD7FF0E256EFFD7030064
:020000040030CA
:0E00000024CE3E1E000781000FC00FE00F400F
:00000001FF
;PIC18F2550
;CRC=6112  CREATED="06-Mar-16 00:19"
